:100000000C942A000C943F000C943F000C943F0089
:100010000C943F000C943F000C943F000C943F0064
:100020000C943F000C943F000C943F000C943F0054
:100030000C943F000C943F000C943F000C943F0044
:100040000C943F000C943F000C943F000C943F0034
:100050000C943F0011241FBECFE5D4E0DEBFCDBF1E
:1000600010E0A0E6B0E0E0E3F4E002C005900D92FD
:10007000AA3AB107D9F70E9441000C9416020C94D9
:10008000000083E390E00E94C70180E00E94270106
:100090008FEF87BB80E060E00E94BE0180E690E0C9
:1000A0000E94520180E061E00E94BE018CE690E077
:1000B0000E94520180E197E229E130E0F901319795
:1000C000F1F70197D9F781E090E060E070E00E94DD
:1000D000FF0080E060E00E94BE0189E790E00E949E
:1000E00052010E94CE01873589F481E090E060E002
:1000F00070E00E94FF0080E060E00E94BE0189E89D
:1001000090E00E94520187E590E04CC08A3589F466
:1001100081E090E060E070E00E94FF0080E060E03D
:100120000E94BE0181E990E00E9452018AE590E0C0
:1001300039C0883589F481E090E060E070E00E9489
:10014000FF0080E060E00E94BE0189E990E00E942B
:10015000520188E590E026C0893589F481E090E07D
:1001600060E070E00E94FF0080E060E00E94BE015D
:100170008FE990E00E94520189E590E013C0853438
:1001800009F0AFCF81E090E060E070E00E94FF00F6
:1001900080E060E00E94BE0184EA90E00E9452018B
:1001A00085E490E00E94D2019CCF84B3807F84BB21
:1001B000959A969881E08A95F1F721E0979A822F97
:1001C0008A95F1F783B38295807F922F9A95F1F704
:1001D0009798922F9A95F1F7979A922F9A95F1F70F
:1001E00093B3922F9A95F1F79798922F9A95F1F7EA
:1001F00087FDE4CF959884B38F6084BB0895382F32
:10020000662311F4969801C0969A21E0822F8A9570
:10021000F1F7979A85B3932F92959F70807F982BD3
:1002200095BB822F8A95F1F79798822F8A95F1F7DF
:10023000979A85B33F70807F832B85BB822F8A95E9
:10024000F1F797982A95F1F70E94D50008951F932A
:10025000182F8CE49DE10197F1F784B38F6084BB84
:100260008F9A8E9A8D9A85B3807F85BB9798959843
:10027000969881E0982F9A95F1F7979AA99A982FD6
:100280009A95F1F797988A95F1F70E94D500812FFA
:100290008C6060E00E94FF0088E260E00E94FF0046
:1002A0001F910895CF93DF93EC0104C061E00E9499
:1002B000FF00219688818823C9F7DF91CF910895A7
:1002C000EF92FF920F931F93DF93CF9300D000D054
:1002D0000F92CDB7DEB79C018B01FE01319685E010
:1002E000DF011D928A95E9F7FE0135960DC0C9011F
:1002F0006AE070E00E94EF018083C9016AE070E06B
:100300000E94EF019B0131972115310581F7BFEF65
:100310000F3F1B0779F420E030E0AE014F5F5F4FE5
:1003200002C02F5F3F4FFA01E20FF31F8081882345
:10033000C1F304C025E030E0201B310B7E0108949E
:10034000E11CF11CE20EF31E890109C0F701819145
:100350007F01805D61E00E94FF000F5F1F4F05304D
:100360001105A4F30F900F900F900F900F90CF9165
:10037000DF911F910F91FF90EF900895883230F434
:1003800061118064806860E00E94FF00089589B96F
:1003900090BD86E880BD88ED8AB908955F9BFECF49
:1003A0008CB108955D9BFECF8CB90895FC015D9BD7
:1003B000FECF83E28CB95D9BFECF83E08CB95D9B61
:1003C000FECF81E003C05D9BFECF31968CB980816A
:1003D0008823C9F75D9BFECF8AE08CB9089597FB0F
:1003E000092E07260AD077FD04D00CD006D00020B5
:1003F0001AF4709561957F4F0895F6F79095819561
:100400009F4F0895AA1BBB1B51E107C0AA1FBB1F2A
:10041000A617B70710F0A61BB70B881F991F5A9590
:10042000A9F780959095BC01CD010895F894FFCF70
:100430004C41425649455720475549005769746811
:100440002050524F544555530077616974696E6767
:100450002D2D2D2D2D2D2D2D00464F52574152441F
:100460000052455645525345005249474854004CA6
:0A0470004546540053544F5000005D
:00000001FF
