:100000000C942A000C943F000C943F000C943F0089
:100010000C943F000C943F000C943F000C943F0064
:100020000C943F000C943F000C943F000C943F0054
:100030000C943F000C943F000C943F000C943F0044
:100040000C943F000C943F000C943F000C943F0034
:100050000C943F0011241FBECFE5D4E0DEBFCDBF1E
:1000600010E0A0E6B0E0E6E2F4E002C005900D92F8
:10007000AA3AB107D9F70E9441000C9411020C94DE
:100080000000EF92FF920F931F9383E390E00E9492
:10009000C20180E00E9422018FEF87BB80E060E018
:1000A0000E94B90180E690E00E944D0180E061E08D
:1000B0000E94B9018CE690E00E944D0180E197E238
:1000C00029E130E0F9013197F1F70197D9F781E0A3
:1000D00090E060E070E00E94FA0080E060E00E9442
:1000E000B90189E790E00E944D019AE0E92E88E08D
:1000F000F82E02E015E00E94C901873571F481E015
:1001000090E060E070E00E94FA00E8BA80E060E011
:100110000E94B90189E890E040C08A3571F481E01D
:1001200090E060E070E00E94FA0018BB80E060E0C0
:100130000E94B90181E990E030C0883571F481E016
:1001400090E060E070E00E94FA0008BB80E060E0B0
:100150000E94B90189E990E020C0893571F481E0FD
:1001600090E060E070E00E94FA00F8BA80E060E0A1
:100170000E94B9018FE990E010C0853409F0BBCF2F
:1001800081E090E060E070E00E94FA0018BA80E040
:1001900060E00E94B90184EA90E00E944D01ABCF7B
:1001A00084B3807F84BB959A969881E08A95F1F715
:1001B00021E0979A822F8A95F1F783B38295807F09
:1001C000922F9A95F1F79798922F9A95F1F7979A1F
:1001D000922F9A95F1F793B3922F9A95F1F79798FA
:1001E000922F9A95F1F787FDE4CF959884B38F60AD
:1001F00084BB0895382F662311F4969801C0969A0F
:1002000021E0822F8A95F1F7979A85B3932F9295E3
:100210009F70807F982B95BB822F8A95F1F79798D6
:10022000822F8A95F1F7979A85B33F70807F832B51
:1002300085BB822F8A95F1F797982A95F1F70E944E
:10024000D00008951F93182F8CE49DE10197F1F7DA
:1002500084B38F6084BB8F9A8E9A8D9A85B3807F8A
:1002600085BB97989598969881E0982F9A95F1F785
:10027000979AA99A982F9A95F1F797988A95F1F7F6
:100280000E94D000812F8C6060E00E94FA0088E21A
:1002900060E00E94FA001F910895CF93DF93EC0174
:1002A00004C061E00E94FA00219688818823C9F782
:1002B000DF91CF910895EF92FF920F931F93DF93F9
:1002C000CF9300D000D00F92CDB7DEB79C018B0149
:1002D000FE01319685E0DF011D928A95E9F7FE0166
:1002E00035960DC0C9016AE070E00E94EA01808382
:1002F000C9016AE070E00E94EA019B013197211573
:10030000310581F7BFEF0F3F1B0779F420E030E0A4
:10031000AE014F5F5F4F02C02F5F3F4FFA01E20F08
:10032000F31F80818823C1F304C025E030E0201B47
:10033000310B7E010894E11CF11CE20EF31E8901D1
:1003400009C0F70181917F01805D61E00E94FA00A0
:100350000F5F1F4F05301105A4F30F900F900F9002
:100360000F900F90CF91DF911F910F91FF90EF9021
:100370000895883230F461118064806860E00E94E2
:10038000FA00089589B990BD86E880BD88ED8AB9E4
:1003900008955F9BFECF8CB108955D9BFECF8CB915
:1003A0000895FC015D9BFECF83E28CB95D9BFECF7F
:1003B00083E08CB95D9BFECF81E003C05D9BFECFE7
:1003C00031968CB980818823C9F75D9BFECF8AE086
:1003D0008CB9089597FB092E07260AD077FD04D023
:1003E0000CD006D000201AF4709561957F4F0895C7
:1003F000F6F7909581959F4F0895AA1BBB1B51E17D
:1004000007C0AA1FBB1FA617B70710F0A61BB70B84
:10041000881F991F5A95A9F780959095BC01CD0129
:060420000895F894FFCFDF
:100426004C4142564945572047554900576974681B
:100436002050524F544555530077616974696E6771
:100446002D2D2D2D2D2D2D2D00464F525741524429
:100456000052455645525345005249474854004CB0
:0A0466004546540053544F50000067
:00000001FF
